{
  "contractName": "Biconomy_nft_poc",
  "abi": [
    {
      "inputs": [],
      "stateMutability": "nonpayable",
      "type": "constructor"
    },
    {
      "anonymous": false,
      "inputs": [
        {
          "indexed": true,
          "internalType": "address",
          "name": "account",
          "type": "address"
        },
        {
          "indexed": true,
          "internalType": "address",
          "name": "operator",
          "type": "address"
        },
        {
          "indexed": false,
          "internalType": "bool",
          "name": "approved",
          "type": "bool"
        }
      ],
      "name": "ApprovalForAll",
      "type": "event"
    },
    {
      "anonymous": false,
      "inputs": [
        {
          "indexed": false,
          "internalType": "address",
          "name": "creator",
          "type": "address"
        },
        {
          "indexed": false,
          "internalType": "uint256",
          "name": "tokenId",
          "type": "uint256"
        }
      ],
      "name": "NFTMinted",
      "type": "event"
    },
    {
      "anonymous": false,
      "inputs": [
        {
          "indexed": true,
          "internalType": "address",
          "name": "previousOwner",
          "type": "address"
        },
        {
          "indexed": true,
          "internalType": "address",
          "name": "newOwner",
          "type": "address"
        }
      ],
      "name": "OwnershipTransferred",
      "type": "event"
    },
    {
      "anonymous": false,
      "inputs": [
        {
          "indexed": true,
          "internalType": "address",
          "name": "operator",
          "type": "address"
        },
        {
          "indexed": true,
          "internalType": "address",
          "name": "from",
          "type": "address"
        },
        {
          "indexed": true,
          "internalType": "address",
          "name": "to",
          "type": "address"
        },
        {
          "indexed": false,
          "internalType": "uint256[]",
          "name": "ids",
          "type": "uint256[]"
        },
        {
          "indexed": false,
          "internalType": "uint256[]",
          "name": "values",
          "type": "uint256[]"
        }
      ],
      "name": "TransferBatch",
      "type": "event"
    },
    {
      "anonymous": false,
      "inputs": [
        {
          "indexed": true,
          "internalType": "address",
          "name": "operator",
          "type": "address"
        },
        {
          "indexed": true,
          "internalType": "address",
          "name": "from",
          "type": "address"
        },
        {
          "indexed": true,
          "internalType": "address",
          "name": "to",
          "type": "address"
        },
        {
          "indexed": false,
          "internalType": "uint256",
          "name": "id",
          "type": "uint256"
        },
        {
          "indexed": false,
          "internalType": "uint256",
          "name": "value",
          "type": "uint256"
        }
      ],
      "name": "TransferSingle",
      "type": "event"
    },
    {
      "anonymous": false,
      "inputs": [
        {
          "indexed": false,
          "internalType": "string",
          "name": "value",
          "type": "string"
        },
        {
          "indexed": true,
          "internalType": "uint256",
          "name": "id",
          "type": "uint256"
        }
      ],
      "name": "URI",
      "type": "event"
    },
    {
      "inputs": [
        {
          "internalType": "address",
          "name": "account",
          "type": "address"
        },
        {
          "internalType": "uint256",
          "name": "id",
          "type": "uint256"
        }
      ],
      "name": "balanceOf",
      "outputs": [
        {
          "internalType": "uint256",
          "name": "",
          "type": "uint256"
        }
      ],
      "stateMutability": "view",
      "type": "function",
      "constant": true
    },
    {
      "inputs": [
        {
          "internalType": "address[]",
          "name": "accounts",
          "type": "address[]"
        },
        {
          "internalType": "uint256[]",
          "name": "ids",
          "type": "uint256[]"
        }
      ],
      "name": "balanceOfBatch",
      "outputs": [
        {
          "internalType": "uint256[]",
          "name": "",
          "type": "uint256[]"
        }
      ],
      "stateMutability": "view",
      "type": "function",
      "constant": true
    },
    {
      "inputs": [
        {
          "internalType": "uint256",
          "name": "",
          "type": "uint256"
        }
      ],
      "name": "hashes",
      "outputs": [
        {
          "internalType": "string",
          "name": "",
          "type": "string"
        }
      ],
      "stateMutability": "view",
      "type": "function",
      "constant": true
    },
    {
      "inputs": [
        {
          "internalType": "address",
          "name": "account",
          "type": "address"
        },
        {
          "internalType": "address",
          "name": "operator",
          "type": "address"
        }
      ],
      "name": "isApprovedForAll",
      "outputs": [
        {
          "internalType": "bool",
          "name": "",
          "type": "bool"
        }
      ],
      "stateMutability": "view",
      "type": "function",
      "constant": true
    },
    {
      "inputs": [],
      "name": "owner",
      "outputs": [
        {
          "internalType": "address",
          "name": "",
          "type": "address"
        }
      ],
      "stateMutability": "view",
      "type": "function",
      "constant": true
    },
    {
      "inputs": [],
      "name": "renounceOwnership",
      "outputs": [],
      "stateMutability": "nonpayable",
      "type": "function"
    },
    {
      "inputs": [
        {
          "internalType": "address",
          "name": "from",
          "type": "address"
        },
        {
          "internalType": "address",
          "name": "to",
          "type": "address"
        },
        {
          "internalType": "uint256[]",
          "name": "ids",
          "type": "uint256[]"
        },
        {
          "internalType": "uint256[]",
          "name": "amounts",
          "type": "uint256[]"
        },
        {
          "internalType": "bytes",
          "name": "data",
          "type": "bytes"
        }
      ],
      "name": "safeBatchTransferFrom",
      "outputs": [],
      "stateMutability": "nonpayable",
      "type": "function"
    },
    {
      "inputs": [
        {
          "internalType": "address",
          "name": "from",
          "type": "address"
        },
        {
          "internalType": "address",
          "name": "to",
          "type": "address"
        },
        {
          "internalType": "uint256",
          "name": "id",
          "type": "uint256"
        },
        {
          "internalType": "uint256",
          "name": "amount",
          "type": "uint256"
        },
        {
          "internalType": "bytes",
          "name": "data",
          "type": "bytes"
        }
      ],
      "name": "safeTransferFrom",
      "outputs": [],
      "stateMutability": "nonpayable",
      "type": "function"
    },
    {
      "inputs": [
        {
          "internalType": "address",
          "name": "operator",
          "type": "address"
        },
        {
          "internalType": "bool",
          "name": "approved",
          "type": "bool"
        }
      ],
      "name": "setApprovalForAll",
      "outputs": [],
      "stateMutability": "nonpayable",
      "type": "function"
    },
    {
      "inputs": [
        {
          "internalType": "bytes4",
          "name": "interfaceId",
          "type": "bytes4"
        }
      ],
      "name": "supportsInterface",
      "outputs": [
        {
          "internalType": "bool",
          "name": "",
          "type": "bool"
        }
      ],
      "stateMutability": "view",
      "type": "function",
      "constant": true
    },
    {
      "inputs": [
        {
          "internalType": "address",
          "name": "newOwner",
          "type": "address"
        }
      ],
      "name": "transferOwnership",
      "outputs": [],
      "stateMutability": "nonpayable",
      "type": "function"
    },
    {
      "inputs": [
        {
          "internalType": "uint256",
          "name": "",
          "type": "uint256"
        }
      ],
      "name": "uri",
      "outputs": [
        {
          "internalType": "string",
          "name": "",
          "type": "string"
        }
      ],
      "stateMutability": "view",
      "type": "function",
      "constant": true
    },
    {
      "inputs": [
        {
          "internalType": "string",
          "name": "_hash",
          "type": "string"
        }
      ],
      "name": "mint",
      "outputs": [],
      "stateMutability": "nonpayable",
      "type": "function"
    },
    {
      "inputs": [
        {
          "internalType": "string",
          "name": "_hash",
          "type": "string"
        }
      ],
      "name": "getTokenID",
      "outputs": [
        {
          "internalType": "uint256",
          "name": "tokenID",
          "type": "uint256"
        }
      ],
      "stateMutability": "view",
      "type": "function",
      "constant": true
    },
    {
      "inputs": [],
      "name": "getNftCount",
      "outputs": [
        {
          "internalType": "uint256",
          "name": "count",
          "type": "uint256"
        }
      ],
      "stateMutability": "view",
      "type": "function",
      "constant": true
    }
  ],
  "bytecode": "0x60806040523480156200001157600080fd5b506040518060600160405280602a815260200162003093602a9139620000446301ffc9a760e01b6200013d60201b60201c565b62000055816200024660201b60201c565b6200006d63d9b67a2660e01b6200013d60201b60201c565b62000085630e89341c60e01b6200013d60201b60201c565b506000620000986200026260201b60201c565b905080600460006101000a81548173ffffffffffffffffffffffffffffffffffffffff021916908373ffffffffffffffffffffffffffffffffffffffff1602179055508073ffffffffffffffffffffffffffffffffffffffff16600073ffffffffffffffffffffffffffffffffffffffff167f8be0079c531659141344cd1fd0a4f28419497f9722a3daafe3b4186f6b6457e060405160405180910390a35062000310565b63ffffffff60e01b817bffffffffffffffffffffffffffffffffffffffffffffffffffffffff19161415620001da576040517f08c379a000000000000000000000000000000000000000000000000000000000815260040180806020018281038252601c8152602001807f4552433136353a20696e76616c696420696e746572666163652069640000000081525060200191505060405180910390fd5b6001600080837bffffffffffffffffffffffffffffffffffffffffffffffffffffffff19167bffffffffffffffffffffffffffffffffffffffffffffffffffffffff1916815260200190815260200160002060006101000a81548160ff02191690831515021790555050565b80600390805190602001906200025e9291906200026a565b5050565b600033905090565b828054600181600116156101000203166002900490600052602060002090601f016020900481019282601f10620002ad57805160ff1916838001178555620002de565b82800160010185558215620002de579182015b82811115620002dd578251825591602001919060010190620002c0565b5b509050620002ed9190620002f1565b5090565b5b808211156200030c576000816000905550600101620002f2565b5090565b612d7380620003206000396000f3fe608060405234801561001057600080fd5b50600436106100f45760003560e01c8063715018a611610097578063e706a63911610066578063e706a63914610837578063e985e9c514610906578063f242432a14610980578063f2fde38b14610a8f576100f4565b8063715018a6146106ee5780638da5cb5b146106f8578063a22cb4651461072c578063d85d3d271461077c576100f4565b80632eb2c2d6116100d35780632eb2c2d6146102655780634e1273f414610488578063501895ae14610629578063692f1d12146106d0576100f4565b8062fdd58e146100f957806301ffc9a71461015b5780630e89341c146101be575b600080fd5b6101456004803603604081101561010f57600080fd5b81019080803573ffffffffffffffffffffffffffffffffffffffff16906020019092919080359060200190929190505050610ad3565b6040518082815260200191505060405180910390f35b6101a66004803603602081101561017157600080fd5b8101908080357bffffffffffffffffffffffffffffffffffffffffffffffffffffffff19169060200190929190505050610bb3565b60405180821515815260200191505060405180910390f35b6101ea600480360360208110156101d457600080fd5b8101908080359060200190929190505050610c1a565b6040518080602001828103825283818151815260200191508051906020019080838360005b8381101561022a57808201518184015260208101905061020f565b50505050905090810190601f1680156102575780820380516001836020036101000a031916815260200191505b509250505060405180910390f35b610486600480360360a081101561027b57600080fd5b81019080803573ffffffffffffffffffffffffffffffffffffffff169060200190929190803573ffffffffffffffffffffffffffffffffffffffff169060200190929190803590602001906401000000008111156102d857600080fd5b8201836020820111156102ea57600080fd5b8035906020019184602083028401116401000000008311171561030c57600080fd5b919080806020026020016040519081016040528093929190818152602001838360200280828437600081840152601f19601f8201169050808301925050505050505091929192908035906020019064010000000081111561036c57600080fd5b82018360208201111561037e57600080fd5b803590602001918460208302840111640100000000831117156103a057600080fd5b919080806020026020016040519081016040528093929190818152602001838360200280828437600081840152601f19601f8201169050808301925050505050505091929192908035906020019064010000000081111561040057600080fd5b82018360208201111561041257600080fd5b8035906020019184600183028401116401000000008311171561043457600080fd5b91908080601f016020809104026020016040519081016040528093929190818152602001838380828437600081840152601f19601f820116905080830192505050505050509192919290505050610cbe565b005b6105d26004803603604081101561049e57600080fd5b81019080803590602001906401000000008111156104bb57600080fd5b8201836020820111156104cd57600080fd5b803590602001918460208302840111640100000000831117156104ef57600080fd5b919080806020026020016040519081016040528093929190818152602001838360200280828437600081840152601f19601f8201169050808301925050505050505091929192908035906020019064010000000081111561054f57600080fd5b82018360208201111561056157600080fd5b8035906020019184602083028401116401000000008311171561058357600080fd5b919080806020026020016040519081016040528093929190818152602001838360200280828437600081840152601f19601f820116905080830192505050505050509192919290505050611149565b6040518080602001828103825283818151815260200191508051906020019060200280838360005b838110156106155780820151818401526020810190506105fa565b505050509050019250505060405180910390f35b6106556004803603602081101561063f57600080fd5b810190808035906020019092919050505061125b565b6040518080602001828103825283818151815260200191508051906020019080838360005b8381101561069557808201518184015260208101905061067a565b50505050905090810190601f1680156106c25780820380516001836020036101000a031916815260200191505b509250505060405180910390f35b6106d8611314565b6040518082815260200191505060405180910390f35b6106f6611321565b005b610700611491565b604051808273ffffffffffffffffffffffffffffffffffffffff16815260200191505060405180910390f35b61077a6004803603604081101561074257600080fd5b81019080803573ffffffffffffffffffffffffffffffffffffffff1690602001909291908035151590602001909291905050506114bb565b005b6108356004803603602081101561079257600080fd5b81019080803590602001906401000000008111156107af57600080fd5b8201836020820111156107c157600080fd5b803590602001918460018302840111640100000000831117156107e357600080fd5b91908080601f016020809104026020016040519081016040528093929190818152602001838380828437600081840152601f19601f820116905080830192505050505050509192919290505050611654565b005b6108f06004803603602081101561084d57600080fd5b810190808035906020019064010000000081111561086a57600080fd5b82018360208201111561087c57600080fd5b8035906020019184600183028401116401000000008311171561089e57600080fd5b91908080601f016020809104026020016040519081016040528093929190818152602001838380828437600081840152601f19601f8201169050808301925050505050505091929192905050506118cf565b6040518082815260200191505060405180910390f35b6109686004803603604081101561091c57600080fd5b81019080803573ffffffffffffffffffffffffffffffffffffffff169060200190929190803573ffffffffffffffffffffffffffffffffffffffff169060200190929190505050611942565b60405180821515815260200191505060405180910390f35b610a8d600480360360a081101561099657600080fd5b81019080803573ffffffffffffffffffffffffffffffffffffffff169060200190929190803573ffffffffffffffffffffffffffffffffffffffff169060200190929190803590602001909291908035906020019092919080359060200190640100000000811115610a0757600080fd5b820183602082011115610a1957600080fd5b80359060200191846001830284011164010000000083111715610a3b57600080fd5b91908080601f016020809104026020016040519081016040528093929190818152602001838380828437600081840152601f19601f8201169050808301925050505050505091929192905050506119d6565b005b610ad160048036036020811015610aa557600080fd5b81019080803573ffffffffffffffffffffffffffffffffffffffff169060200190929190505050611d4b565b005b60008073ffffffffffffffffffffffffffffffffffffffff168373ffffffffffffffffffffffffffffffffffffffff161415610b5a576040517f08c379a000000000000000000000000000000000000000000000000000000000815260040180806020018281038252602b815260200180612b82602b913960400191505060405180910390fd5b6001600083815260200190815260200160002060008473ffffffffffffffffffffffffffffffffffffffff1673ffffffffffffffffffffffffffffffffffffffff16815260200190815260200160002054905092915050565b6000806000837bffffffffffffffffffffffffffffffffffffffffffffffffffffffff19167bffffffffffffffffffffffffffffffffffffffffffffffffffffffff1916815260200190815260200160002060009054906101000a900460ff169050919050565b606060038054600181600116156101000203166002900480601f016020809104026020016040519081016040528092919081815260200182805460018160011615610100020316600290048015610cb25780601f10610c8757610100808354040283529160200191610cb2565b820191906000526020600020905b815481529060010190602001808311610c9557829003601f168201915b50505050509050919050565b8151835114610d18576040517f08c379a0000000000000000000000000000000000000000000000000000000008152600401808060200182810382526028815260200180612cf56028913960400191505060405180910390fd5b600073ffffffffffffffffffffffffffffffffffffffff168473ffffffffffffffffffffffffffffffffffffffff161415610d9e576040517f08c379a0000000000000000000000000000000000000000000000000000000008152600401808060200182810382526025815260200180612c226025913960400191505060405180910390fd5b610da6611f40565b73ffffffffffffffffffffffffffffffffffffffff168573ffffffffffffffffffffffffffffffffffffffff161480610dec5750610deb85610de6611f40565b611942565b5b610e41576040517f08c379a0000000000000000000000000000000000000000000000000000000008152600401808060200182810382526032815260200180612c476032913960400191505060405180910390fd5b6000610e4b611f40565b9050610e5b818787878787611f48565b60005b845181101561102c576000858281518110610e7557fe5b602002602001015190506000858381518110610e8d57fe5b60200260200101519050610f14816040518060600160405280602a8152602001612c79602a91396001600086815260200190815260200160002060008d73ffffffffffffffffffffffffffffffffffffffff1673ffffffffffffffffffffffffffffffffffffffff16815260200190815260200160002054611f509092919063ffffffff16565b6001600084815260200190815260200160002060008b73ffffffffffffffffffffffffffffffffffffffff1673ffffffffffffffffffffffffffffffffffffffff16815260200190815260200160002081905550610fcb816001600085815260200190815260200160002060008b73ffffffffffffffffffffffffffffffffffffffff1673ffffffffffffffffffffffffffffffffffffffff1681526020019081526020016000205461200a90919063ffffffff16565b6001600084815260200190815260200160002060008a73ffffffffffffffffffffffffffffffffffffffff1673ffffffffffffffffffffffffffffffffffffffff168152602001908152602001600020819055505050806001019050610e5e565b508473ffffffffffffffffffffffffffffffffffffffff168673ffffffffffffffffffffffffffffffffffffffff168273ffffffffffffffffffffffffffffffffffffffff167f4a39dc06d4c0dbc64b70af90fd698a233a518aa5d07e595d983b8c0526c8f7fb8787604051808060200180602001838103835285818151815260200191508051906020019060200280838360005b838110156110dc5780820151818401526020810190506110c1565b50505050905001838103825284818151815260200191508051906020019060200280838360005b8381101561111e578082015181840152602081019050611103565b5050505090500194505050505060405180910390a4611141818787878787612092565b505050505050565b606081518351146111a5576040517f08c379a0000000000000000000000000000000000000000000000000000000008152600401808060200182810382526029815260200180612ccc6029913960400191505060405180910390fd5b6060835167ffffffffffffffff811180156111bf57600080fd5b506040519080825280602002602001820160405280156111ee5781602001602082028036833780820191505090505b50905060005b84518110156112505761122d85828151811061120c57fe5b602002602001015185838151811061122057fe5b6020026020010151610ad3565b82828151811061123957fe5b6020026020010181815250508060010190506111f4565b508091505092915050565b6005818154811061126857fe5b906000526020600020016000915090508054600181600116156101000203166002900480601f01602080910402602001604051908101604052809291908181526020018280546001816001161561010002031660029004801561130c5780601f106112e15761010080835404028352916020019161130c565b820191906000526020600020905b8154815290600101906020018083116112ef57829003601f168201915b505050505081565b6000600580549050905090565b611329611f40565b73ffffffffffffffffffffffffffffffffffffffff16611347611491565b73ffffffffffffffffffffffffffffffffffffffff16146113d0576040517f08c379a00000000000000000000000000000000000000000000000000000000081526004018080602001828103825260208152602001807f4f776e61626c653a2063616c6c6572206973206e6f7420746865206f776e657281525060200191505060405180910390fd5b600073ffffffffffffffffffffffffffffffffffffffff16600460009054906101000a900473ffffffffffffffffffffffffffffffffffffffff1673ffffffffffffffffffffffffffffffffffffffff167f8be0079c531659141344cd1fd0a4f28419497f9722a3daafe3b4186f6b6457e060405160405180910390a36000600460006101000a81548173ffffffffffffffffffffffffffffffffffffffff021916908373ffffffffffffffffffffffffffffffffffffffff160217905550565b6000600460009054906101000a900473ffffffffffffffffffffffffffffffffffffffff16905090565b8173ffffffffffffffffffffffffffffffffffffffff166114da611f40565b73ffffffffffffffffffffffffffffffffffffffff161415611547576040517f08c379a0000000000000000000000000000000000000000000000000000000008152600401808060200182810382526029815260200180612ca36029913960400191505060405180910390fd5b8060026000611554611f40565b73ffffffffffffffffffffffffffffffffffffffff1673ffffffffffffffffffffffffffffffffffffffff16815260200190815260200160002060008473ffffffffffffffffffffffffffffffffffffffff1673ffffffffffffffffffffffffffffffffffffffff16815260200190815260200160002060006101000a81548160ff0219169083151502179055508173ffffffffffffffffffffffffffffffffffffffff16611601611f40565b73ffffffffffffffffffffffffffffffffffffffff167f17307eab39ab6107e8899845ad3d59bd9653f200f220920489ca2b5937696c318360405180821515815260200191505060405180910390a35050565b6006816040518082805190602001908083835b6020831061168a5780518252602082019150602081019050602083039250611667565b6001836020036101000a038019825116818451168082178552505050505050905001915050908152602001604051809103902060009054906101000a900460ff1615611721576040517f08c379a0000000000000000000000000000000000000000000000000000000008152600401808060200182810382526026815260200180612bfc6026913960400191505060405180910390fd5b60058190806001815401808255809150506001900390600052602060002001600090919091909150908051906020019061175c9291906129b4565b50600060016005805490500390506117863382600160405180602001604052806000815250612421565b60016006836040518082805190602001908083835b602083106117be578051825260208201915060208101905060208303925061179b565b6001836020036101000a038019825116818451168082178552505050505050905001915050908152602001604051809103902060006101000a81548160ff021916908315150217905550806007836040518082805190602001908083835b6020831061183f578051825260208201915060208101905060208303925061181c565b6001836020036101000a0380198251168184511680821785525050505050509050019150509081526020016040518091039020819055507f4cc0a9c4a99ddc700de1af2c9f916a7cbfdb71f14801ccff94061ad1ef8a80403382604051808373ffffffffffffffffffffffffffffffffffffffff1681526020018281526020019250505060405180910390a15050565b60006007826040518082805190602001908083835b6020831061190757805182526020820191506020810190506020830392506118e4565b6001836020036101000a0380198251168184511680821785525050505050509050019150509081526020016040518091039020549050919050565b6000600260008473ffffffffffffffffffffffffffffffffffffffff1673ffffffffffffffffffffffffffffffffffffffff16815260200190815260200160002060008373ffffffffffffffffffffffffffffffffffffffff1673ffffffffffffffffffffffffffffffffffffffff16815260200190815260200160002060009054906101000a900460ff16905092915050565b600073ffffffffffffffffffffffffffffffffffffffff168473ffffffffffffffffffffffffffffffffffffffff161415611a5c576040517f08c379a0000000000000000000000000000000000000000000000000000000008152600401808060200182810382526025815260200180612c226025913960400191505060405180910390fd5b611a64611f40565b73ffffffffffffffffffffffffffffffffffffffff168573ffffffffffffffffffffffffffffffffffffffff161480611aaa5750611aa985611aa4611f40565b611942565b5b611aff576040517f08c379a0000000000000000000000000000000000000000000000000000000008152600401808060200182810382526029815260200180612bd36029913960400191505060405180910390fd5b6000611b09611f40565b9050611b29818787611b1a88612624565b611b2388612624565b87611f48565b611ba6836040518060600160405280602a8152602001612c79602a91396001600088815260200190815260200160002060008a73ffffffffffffffffffffffffffffffffffffffff1673ffffffffffffffffffffffffffffffffffffffff16815260200190815260200160002054611f509092919063ffffffff16565b6001600086815260200190815260200160002060008873ffffffffffffffffffffffffffffffffffffffff1673ffffffffffffffffffffffffffffffffffffffff16815260200190815260200160002081905550611c5d836001600087815260200190815260200160002060008873ffffffffffffffffffffffffffffffffffffffff1673ffffffffffffffffffffffffffffffffffffffff1681526020019081526020016000205461200a90919063ffffffff16565b6001600086815260200190815260200160002060008773ffffffffffffffffffffffffffffffffffffffff1673ffffffffffffffffffffffffffffffffffffffff168152602001908152602001600020819055508473ffffffffffffffffffffffffffffffffffffffff168673ffffffffffffffffffffffffffffffffffffffff168273ffffffffffffffffffffffffffffffffffffffff167fc3d58168c5ae7397731d063d5bbf3d657854427343f4c083240f7aacaa2d0f628787604051808381526020018281526020019250505060405180910390a4611d43818787878787612694565b505050505050565b611d53611f40565b73ffffffffffffffffffffffffffffffffffffffff16611d71611491565b73ffffffffffffffffffffffffffffffffffffffff1614611dfa576040517f08c379a00000000000000000000000000000000000000000000000000000000081526004018080602001828103825260208152602001807f4f776e61626c653a2063616c6c6572206973206e6f7420746865206f776e657281525060200191505060405180910390fd5b600073ffffffffffffffffffffffffffffffffffffffff168173ffffffffffffffffffffffffffffffffffffffff161415611e80576040517f08c379a0000000000000000000000000000000000000000000000000000000008152600401808060200182810382526026815260200180612bad6026913960400191505060405180910390fd5b8073ffffffffffffffffffffffffffffffffffffffff16600460009054906101000a900473ffffffffffffffffffffffffffffffffffffffff1673ffffffffffffffffffffffffffffffffffffffff167f8be0079c531659141344cd1fd0a4f28419497f9722a3daafe3b4186f6b6457e060405160405180910390a380600460006101000a81548173ffffffffffffffffffffffffffffffffffffffff021916908373ffffffffffffffffffffffffffffffffffffffff16021790555050565b600033905090565b505050505050565b6000838311158290611ffd576040517f08c379a00000000000000000000000000000000000000000000000000000000081526004018080602001828103825283818151815260200191508051906020019080838360005b83811015611fc2578082015181840152602081019050611fa7565b50505050905090810190601f168015611fef5780820380516001836020036101000a031916815260200191505b509250505060405180910390fd5b5082840390509392505050565b600080828401905083811015612088576040517f08c379a000000000000000000000000000000000000000000000000000000000815260040180806020018281038252601b8152602001807f536166654d6174683a206164646974696f6e206f766572666c6f77000000000081525060200191505060405180910390fd5b8091505092915050565b6120b18473ffffffffffffffffffffffffffffffffffffffff166129a1565b15612419578373ffffffffffffffffffffffffffffffffffffffff1663bc197c8187878686866040518663ffffffff1660e01b8152600401808673ffffffffffffffffffffffffffffffffffffffff1681526020018573ffffffffffffffffffffffffffffffffffffffff168152602001806020018060200180602001848103845287818151815260200191508051906020019060200280838360005b8381101561216957808201518184015260208101905061214e565b50505050905001848103835286818151815260200191508051906020019060200280838360005b838110156121ab578082015181840152602081019050612190565b50505050905001848103825285818151815260200191508051906020019080838360005b838110156121ea5780820151818401526020810190506121cf565b50505050905090810190601f1680156122175780820380516001836020036101000a031916815260200191505b5098505050505050505050602060405180830381600087803b15801561223c57600080fd5b505af192505050801561227057506040513d602081101561225c57600080fd5b810190808051906020019092919050505060015b61237a5761227c612a6f565b806122875750612329565b806040517f08c379a00000000000000000000000000000000000000000000000000000000081526004018080602001828103825283818151815260200191508051906020019080838360005b838110156122ee5780820151818401526020810190506122d3565b50505050905090810190601f16801561231b5780820380516001836020036101000a031916815260200191505b509250505060405180910390fd5b6040517f08c379a0000000000000000000000000000000000000000000000000000000008152600401808060200182810382526034815260200180612b266034913960400191505060405180910390fd5b63bc197c8160e01b7bffffffffffffffffffffffffffffffffffffffffffffffffffffffff1916817bffffffffffffffffffffffffffffffffffffffffffffffffffffffff191614612417576040517f08c379a0000000000000000000000000000000000000000000000000000000008152600401808060200182810382526028815260200180612b5a6028913960400191505060405180910390fd5b505b505050505050565b600073ffffffffffffffffffffffffffffffffffffffff168473ffffffffffffffffffffffffffffffffffffffff1614156124a7576040517f08c379a0000000000000000000000000000000000000000000000000000000008152600401808060200182810382526021815260200180612d1d6021913960400191505060405180910390fd5b60006124b1611f40565b90506124d2816000876124c388612624565b6124cc88612624565b87611f48565b612535836001600087815260200190815260200160002060008873ffffffffffffffffffffffffffffffffffffffff1673ffffffffffffffffffffffffffffffffffffffff1681526020019081526020016000205461200a90919063ffffffff16565b6001600086815260200190815260200160002060008773ffffffffffffffffffffffffffffffffffffffff1673ffffffffffffffffffffffffffffffffffffffff168152602001908152602001600020819055508473ffffffffffffffffffffffffffffffffffffffff16600073ffffffffffffffffffffffffffffffffffffffff168273ffffffffffffffffffffffffffffffffffffffff167fc3d58168c5ae7397731d063d5bbf3d657854427343f4c083240f7aacaa2d0f628787604051808381526020018281526020019250505060405180910390a461261d81600087878787612694565b5050505050565b606080600167ffffffffffffffff8111801561263f57600080fd5b5060405190808252806020026020018201604052801561266e5781602001602082028036833780820191505090505b509050828160008151811061267f57fe5b60200260200101818152505080915050919050565b6126b38473ffffffffffffffffffffffffffffffffffffffff166129a1565b15612999578373ffffffffffffffffffffffffffffffffffffffff1663f23a6e6187878686866040518663ffffffff1660e01b8152600401808673ffffffffffffffffffffffffffffffffffffffff1681526020018573ffffffffffffffffffffffffffffffffffffffff16815260200184815260200183815260200180602001828103825283818151815260200191508051906020019080838360005b8381101561276c578082015181840152602081019050612751565b50505050905090810190601f1680156127995780820380516001836020036101000a031916815260200191505b509650505050505050602060405180830381600087803b1580156127bc57600080fd5b505af19250505080156127f057506040513d60208110156127dc57600080fd5b810190808051906020019092919050505060015b6128fa576127fc612a6f565b8061280757506128a9565b806040517f08c379a00000000000000000000000000000000000000000000000000000000081526004018080602001828103825283818151815260200191508051906020019080838360005b8381101561286e578082015181840152602081019050612853565b50505050905090810190601f16801561289b5780820380516001836020036101000a031916815260200191505b509250505060405180910390fd5b6040517f08c379a0000000000000000000000000000000000000000000000000000000008152600401808060200182810382526034815260200180612b266034913960400191505060405180910390fd5b63f23a6e6160e01b7bffffffffffffffffffffffffffffffffffffffffffffffffffffffff1916817bffffffffffffffffffffffffffffffffffffffffffffffffffffffff191614612997576040517f08c379a0000000000000000000000000000000000000000000000000000000008152600401808060200182810382526028815260200180612b5a6028913960400191505060405180910390fd5b505b505050505050565b600080823b905060008111915050919050565b828054600181600116156101000203166002900490600052602060002090601f016020900481019282601f106129f557805160ff1916838001178555612a23565b82800160010185558215612a23579182015b82811115612a22578251825591602001919060010190612a07565b5b509050612a309190612a34565b5090565b5b80821115612a4d576000816000905550600101612a35565b5090565b6000601f19601f8301169050919050565b60008160e01c9050919050565b600060443d1015612a7f57612b22565b60046000803e612a90600051612a62565b6308c379a08114612aa15750612b22565b60405160043d036004823e80513d602482011167ffffffffffffffff82111715612acd57505050612b22565b808201805167ffffffffffffffff811115612aec575050505050612b22565b8060208301013d8501811115612b0757505050505050612b22565b612b1082612a51565b60208401016040528296505050505050505b9056fe455243313135353a207472616e7366657220746f206e6f6e2045524331313535526563656976657220696d706c656d656e746572455243313135353a204552433131353552656365697665722072656a656374656420746f6b656e73455243313135353a2062616c616e636520717565727920666f7220746865207a65726f20616464726573734f776e61626c653a206e6577206f776e657220697320746865207a65726f2061646472657373455243313135353a2063616c6c6572206973206e6f74206f776e6572206e6f7220617070726f766564546f6b656e20776974682074686973206861736820697320616c7265616479206d696e746564455243313135353a207472616e7366657220746f20746865207a65726f2061646472657373455243313135353a207472616e736665722063616c6c6572206973206e6f74206f776e6572206e6f7220617070726f766564455243313135353a20696e73756666696369656e742062616c616e636520666f72207472616e73666572455243313135353a2073657474696e6720617070726f76616c2073746174757320666f722073656c66455243313135353a206163636f756e747320616e6420696473206c656e677468206d69736d61746368455243313135353a2069647320616e6420616d6f756e7473206c656e677468206d69736d61746368455243313135353a206d696e7420746f20746865207a65726f2061646472657373a26469706673582212209d80bc522f3793641f33e54e8e67d369a16a91919c0ecba2ec23501691a1049964736f6c634300060c003368747470733a2f2f6578616d706c6575726c2f746f6b656e6d657461646174612f7b69647d2e6a736f6e",
  "immutableReferences": {},
  "source": "// SPDX-License-Identifier: MIT\npragma solidity ^0.6.0;\n\nimport \"@openzeppelin/contracts/token/ERC1155/ERC1155.sol\";\nimport \"@openzeppelin/contracts/access/Ownable.sol\";\n\n/**\n * @title Biconomy_nft_poc\n * @notice An ERC1155 compliant NFT token\n * @author matt@mattprimeonline.com\n */\ncontract Biconomy_nft_poc is ERC1155, Ownable {\n\n    // Hashes of NFT pictures on IPFS\n    string[] public hashes;\n\n    // Mapping for enforcing unique hashes\n    mapping(string => bool) _hashExists;\n\n    // Mapping from ipfs picture hash to NFT tokenID\n    mapping (string => uint256) private _hashToken;\n\n    event NFTMinted(address creator, uint256 tokenId);\n\n    constructor() public ERC1155(\"https://exampleurl/tokenmetadata/{id}.json\") {}\n\n    /**\n     * @notice Mints a new NFT\n     * @param _hash IPFS picture hash of the NFT\n     */\n    function mint(string memory _hash) public {\n        require(!_hashExists[_hash], \"Token with this hash is already minted\");\n\n        hashes.push(_hash);\n        uint256 _id = hashes.length - 1;\n        _mint(msg.sender, _id, 1, \"\");\n\n        _hashExists[_hash] = true;\n        _hashToken[_hash] = _id;\n\n        emit NFTMinted(msg.sender, _id);\n    }\n\n    /**\n     * @notice Returns the TokenID of nft\n     * @return tokenID of the nft\n     */\n    function getTokenID(string memory _hash) public view returns (uint256 tokenID) {\n        return _hashToken[_hash];\n    }\n\n    /**\n     * @notice Returns the number of minted nfts\n     * @return count the number of nfts\n     */\n    function getNftCount() public view returns (uint256 count) {\n        return hashes.length;\n    }\n}\n",
  "sourcePath": "/home/developer/biconomy_nft_poc/contracts/Biconomy_nft_poc.sol",
  "compiler": {
    "name": "solc",
    "version": "0.6.12+commit.27d51765.Emscripten.clang"
  },
  "schemaVersion": "3.3.2",
  "updatedAt": "2021-02-09T21:50:15.028Z",
  "networkType": "ethereum",
  "devdoc": {
    "author": "matt@mattprimeonline.com",
    "kind": "dev",
    "methods": {
      "balanceOf(address,uint256)": {
        "details": "See {IERC1155-balanceOf}. Requirements: - `account` cannot be the zero address."
      },
      "balanceOfBatch(address[],uint256[])": {
        "details": "See {IERC1155-balanceOfBatch}. Requirements: - `accounts` and `ids` must have the same length."
      },
      "getNftCount()": {
        "returns": {
          "count": "the number of nfts"
        }
      },
      "getTokenID(string)": {
        "returns": {
          "tokenID": "of the nft"
        }
      },
      "isApprovedForAll(address,address)": {
        "details": "See {IERC1155-isApprovedForAll}."
      },
      "mint(string)": {
        "params": {
          "_hash": "IPFS picture hash of the NFT"
        }
      },
      "owner()": {
        "details": "Returns the address of the current owner."
      },
      "renounceOwnership()": {
        "details": "Leaves the contract without owner. It will not be possible to call `onlyOwner` functions anymore. Can only be called by the current owner. NOTE: Renouncing ownership will leave the contract without an owner, thereby removing any functionality that is only available to the owner."
      },
      "safeBatchTransferFrom(address,address,uint256[],uint256[],bytes)": {
        "details": "See {IERC1155-safeBatchTransferFrom}."
      },
      "safeTransferFrom(address,address,uint256,uint256,bytes)": {
        "details": "See {IERC1155-safeTransferFrom}."
      },
      "setApprovalForAll(address,bool)": {
        "details": "See {IERC1155-setApprovalForAll}."
      },
      "supportsInterface(bytes4)": {
        "details": "See {IERC165-supportsInterface}. Time complexity O(1), guaranteed to always use less than 30 000 gas."
      },
      "transferOwnership(address)": {
        "details": "Transfers ownership of the contract to a new account (`newOwner`). Can only be called by the current owner."
      },
      "uri(uint256)": {
        "details": "See {IERC1155MetadataURI-uri}. This implementation returns the same URI for *all* token types. It relies on the token type ID substitution mechanism https://eips.ethereum.org/EIPS/eip-1155#metadata[defined in the EIP]. Clients calling this function must replace the `\\{id\\}` substring with the actual token type ID."
      }
    },
    "title": "Biconomy_nft_poc",
    "version": 1
  },
  "userdoc": {
    "kind": "user",
    "methods": {
      "getNftCount()": {
        "notice": "Returns the number of minted nfts"
      },
      "getTokenID(string)": {
        "notice": "Returns the TokenID of nft"
      },
      "mint(string)": {
        "notice": "Mints a new NFT"
      }
    },
    "notice": "An ERC1155 compliant NFT token",
    "version": 1
  }
}