{
  "contractName": "Biconomy_nft_poc",
  "abi": [
    {
      "inputs": [],
      "stateMutability": "nonpayable",
      "type": "constructor"
    },
    {
      "anonymous": false,
      "inputs": [
        {
          "indexed": true,
          "internalType": "address",
          "name": "account",
          "type": "address"
        },
        {
          "indexed": true,
          "internalType": "address",
          "name": "operator",
          "type": "address"
        },
        {
          "indexed": false,
          "internalType": "bool",
          "name": "approved",
          "type": "bool"
        }
      ],
      "name": "ApprovalForAll",
      "type": "event"
    },
    {
      "anonymous": false,
      "inputs": [
        {
          "indexed": false,
          "internalType": "address",
          "name": "creator",
          "type": "address"
        },
        {
          "indexed": false,
          "internalType": "uint256",
          "name": "tokenId",
          "type": "uint256"
        }
      ],
      "name": "NFTMinted",
      "type": "event"
    },
    {
      "anonymous": false,
      "inputs": [
        {
          "indexed": true,
          "internalType": "address",
          "name": "previousOwner",
          "type": "address"
        },
        {
          "indexed": true,
          "internalType": "address",
          "name": "newOwner",
          "type": "address"
        }
      ],
      "name": "OwnershipTransferred",
      "type": "event"
    },
    {
      "anonymous": false,
      "inputs": [
        {
          "indexed": true,
          "internalType": "address",
          "name": "operator",
          "type": "address"
        },
        {
          "indexed": true,
          "internalType": "address",
          "name": "from",
          "type": "address"
        },
        {
          "indexed": true,
          "internalType": "address",
          "name": "to",
          "type": "address"
        },
        {
          "indexed": false,
          "internalType": "uint256[]",
          "name": "ids",
          "type": "uint256[]"
        },
        {
          "indexed": false,
          "internalType": "uint256[]",
          "name": "values",
          "type": "uint256[]"
        }
      ],
      "name": "TransferBatch",
      "type": "event"
    },
    {
      "anonymous": false,
      "inputs": [
        {
          "indexed": true,
          "internalType": "address",
          "name": "operator",
          "type": "address"
        },
        {
          "indexed": true,
          "internalType": "address",
          "name": "from",
          "type": "address"
        },
        {
          "indexed": true,
          "internalType": "address",
          "name": "to",
          "type": "address"
        },
        {
          "indexed": false,
          "internalType": "uint256",
          "name": "id",
          "type": "uint256"
        },
        {
          "indexed": false,
          "internalType": "uint256",
          "name": "value",
          "type": "uint256"
        }
      ],
      "name": "TransferSingle",
      "type": "event"
    },
    {
      "anonymous": false,
      "inputs": [
        {
          "indexed": false,
          "internalType": "string",
          "name": "value",
          "type": "string"
        },
        {
          "indexed": true,
          "internalType": "uint256",
          "name": "id",
          "type": "uint256"
        }
      ],
      "name": "URI",
      "type": "event"
    },
    {
      "inputs": [
        {
          "internalType": "address",
          "name": "account",
          "type": "address"
        },
        {
          "internalType": "uint256",
          "name": "id",
          "type": "uint256"
        }
      ],
      "name": "balanceOf",
      "outputs": [
        {
          "internalType": "uint256",
          "name": "",
          "type": "uint256"
        }
      ],
      "stateMutability": "view",
      "type": "function",
      "constant": true
    },
    {
      "inputs": [
        {
          "internalType": "address[]",
          "name": "accounts",
          "type": "address[]"
        },
        {
          "internalType": "uint256[]",
          "name": "ids",
          "type": "uint256[]"
        }
      ],
      "name": "balanceOfBatch",
      "outputs": [
        {
          "internalType": "uint256[]",
          "name": "",
          "type": "uint256[]"
        }
      ],
      "stateMutability": "view",
      "type": "function",
      "constant": true
    },
    {
      "inputs": [
        {
          "internalType": "uint256",
          "name": "",
          "type": "uint256"
        }
      ],
      "name": "hashes",
      "outputs": [
        {
          "internalType": "string",
          "name": "",
          "type": "string"
        }
      ],
      "stateMutability": "view",
      "type": "function",
      "constant": true
    },
    {
      "inputs": [
        {
          "internalType": "address",
          "name": "account",
          "type": "address"
        },
        {
          "internalType": "address",
          "name": "operator",
          "type": "address"
        }
      ],
      "name": "isApprovedForAll",
      "outputs": [
        {
          "internalType": "bool",
          "name": "",
          "type": "bool"
        }
      ],
      "stateMutability": "view",
      "type": "function",
      "constant": true
    },
    {
      "inputs": [
        {
          "internalType": "address",
          "name": "forwarder",
          "type": "address"
        }
      ],
      "name": "isTrustedForwarder",
      "outputs": [
        {
          "internalType": "bool",
          "name": "",
          "type": "bool"
        }
      ],
      "stateMutability": "view",
      "type": "function",
      "constant": true
    },
    {
      "inputs": [],
      "name": "owner",
      "outputs": [
        {
          "internalType": "address",
          "name": "",
          "type": "address"
        }
      ],
      "stateMutability": "view",
      "type": "function",
      "constant": true
    },
    {
      "inputs": [],
      "name": "renounceOwnership",
      "outputs": [],
      "stateMutability": "nonpayable",
      "type": "function"
    },
    {
      "inputs": [
        {
          "internalType": "address",
          "name": "from",
          "type": "address"
        },
        {
          "internalType": "address",
          "name": "to",
          "type": "address"
        },
        {
          "internalType": "uint256[]",
          "name": "ids",
          "type": "uint256[]"
        },
        {
          "internalType": "uint256[]",
          "name": "amounts",
          "type": "uint256[]"
        },
        {
          "internalType": "bytes",
          "name": "data",
          "type": "bytes"
        }
      ],
      "name": "safeBatchTransferFrom",
      "outputs": [],
      "stateMutability": "nonpayable",
      "type": "function"
    },
    {
      "inputs": [
        {
          "internalType": "address",
          "name": "from",
          "type": "address"
        },
        {
          "internalType": "address",
          "name": "to",
          "type": "address"
        },
        {
          "internalType": "uint256",
          "name": "id",
          "type": "uint256"
        },
        {
          "internalType": "uint256",
          "name": "amount",
          "type": "uint256"
        },
        {
          "internalType": "bytes",
          "name": "data",
          "type": "bytes"
        }
      ],
      "name": "safeTransferFrom",
      "outputs": [],
      "stateMutability": "nonpayable",
      "type": "function"
    },
    {
      "inputs": [
        {
          "internalType": "address",
          "name": "operator",
          "type": "address"
        },
        {
          "internalType": "bool",
          "name": "approved",
          "type": "bool"
        }
      ],
      "name": "setApprovalForAll",
      "outputs": [],
      "stateMutability": "nonpayable",
      "type": "function"
    },
    {
      "inputs": [
        {
          "internalType": "bytes4",
          "name": "interfaceId",
          "type": "bytes4"
        }
      ],
      "name": "supportsInterface",
      "outputs": [
        {
          "internalType": "bool",
          "name": "",
          "type": "bool"
        }
      ],
      "stateMutability": "view",
      "type": "function",
      "constant": true
    },
    {
      "inputs": [
        {
          "internalType": "address",
          "name": "newOwner",
          "type": "address"
        }
      ],
      "name": "transferOwnership",
      "outputs": [],
      "stateMutability": "nonpayable",
      "type": "function"
    },
    {
      "inputs": [],
      "name": "trustedForwarder",
      "outputs": [
        {
          "internalType": "address",
          "name": "",
          "type": "address"
        }
      ],
      "stateMutability": "view",
      "type": "function",
      "constant": true
    },
    {
      "inputs": [
        {
          "internalType": "uint256",
          "name": "",
          "type": "uint256"
        }
      ],
      "name": "uri",
      "outputs": [
        {
          "internalType": "string",
          "name": "",
          "type": "string"
        }
      ],
      "stateMutability": "view",
      "type": "function",
      "constant": true
    },
    {
      "inputs": [
        {
          "internalType": "string",
          "name": "_hash",
          "type": "string"
        }
      ],
      "name": "mint",
      "outputs": [],
      "stateMutability": "nonpayable",
      "type": "function"
    },
    {
      "inputs": [
        {
          "internalType": "string",
          "name": "_hash",
          "type": "string"
        }
      ],
      "name": "getTokenID",
      "outputs": [
        {
          "internalType": "uint256",
          "name": "tokenID",
          "type": "uint256"
        }
      ],
      "stateMutability": "view",
      "type": "function",
      "constant": true
    },
    {
      "inputs": [],
      "name": "getNftCount",
      "outputs": [
        {
          "internalType": "uint256",
          "name": "count",
          "type": "uint256"
        }
      ],
      "stateMutability": "view",
      "type": "function",
      "constant": true
    },
    {
      "inputs": [],
      "name": "versionRecipient",
      "outputs": [
        {
          "internalType": "string",
          "name": "",
          "type": "string"
        }
      ],
      "stateMutability": "view",
      "type": "function",
      "constant": true
    }
  ],
  "bytecode": "0x60806040523480156200001157600080fd5b506040518060600160405280602a8152602001620033b3602a9139620000446301ffc9a760e01b6200019260201b60201c565b62000055816200029b60201b60201c565b6200006d63d9b67a2660e01b6200019260201b60201c565b62000085630e89341c60e01b6200019260201b60201c565b50600062000098620002b760201b60201c565b905080600460006101000a81548173ffffffffffffffffffffffffffffffffffffffff021916908373ffffffffffffffffffffffffffffffffffffffff1602179055508073ffffffffffffffffffffffffffffffffffffffff16600073ffffffffffffffffffffffffffffffffffffffff167f8be0079c531659141344cd1fd0a4f28419497f9722a3daafe3b4186f6b6457e060405160405180910390a350732b99251ec9650e507936fa9530d11de4d6c9c05c600560006101000a81548173ffffffffffffffffffffffffffffffffffffffff021916908373ffffffffffffffffffffffffffffffffffffffff160217905550620003ff565b63ffffffff60e01b817bffffffffffffffffffffffffffffffffffffffffffffffffffffffff191614156200022f576040517f08c379a000000000000000000000000000000000000000000000000000000000815260040180806020018281038252601c8152602001807f4552433136353a20696e76616c696420696e746572666163652069640000000081525060200191505060405180910390fd5b6001600080837bffffffffffffffffffffffffffffffffffffffffffffffffffffffff19167bffffffffffffffffffffffffffffffffffffffffffffffffffffffff1916815260200190815260200160002060006101000a81548160ff02191690831515021790555050565b8060039080519060200190620002b392919062000359565b5050565b60006018600036905010158015620002dc5750620002db33620002ff60201b60201c565b5b15620002f257601436033560601c9050620002fb565b339050620002fc565b5b90565b6000600560009054906101000a900473ffffffffffffffffffffffffffffffffffffffff1673ffffffffffffffffffffffffffffffffffffffff168273ffffffffffffffffffffffffffffffffffffffff16149050919050565b828054600181600116156101000203166002900490600052602060002090601f016020900481019282601f106200039c57805160ff1916838001178555620003cd565b82800160010185558215620003cd579182015b82811115620003cc578251825591602001919060010190620003af565b5b509050620003dc9190620003e0565b5090565b5b80821115620003fb576000816000905550600101620003e1565b5090565b612fa4806200040f6000396000f3fe608060405234801561001057600080fd5b50600436106101155760003560e01c8063715018a6116100a2578063d85d3d2711610071578063d85d3d27146108ae578063e706a63914610969578063e985e9c514610a38578063f242432a14610ab2578063f2fde38b14610bc157610115565b8063715018a6146107ec5780637da0a877146107f65780638da5cb5b1461082a578063a22cb4651461085e57610115565b8063486ff0cd116100e9578063486ff0cd146104a95780634e1273f41461052c578063501895ae146106cd578063572b6c0514610774578063692f1d12146107ce57610115565b8062fdd58e1461011a57806301ffc9a71461017c5780630e89341c146101df5780632eb2c2d614610286575b600080fd5b6101666004803603604081101561013057600080fd5b81019080803573ffffffffffffffffffffffffffffffffffffffff16906020019092919080359060200190929190505050610c05565b6040518082815260200191505060405180910390f35b6101c76004803603602081101561019257600080fd5b8101908080357bffffffffffffffffffffffffffffffffffffffffffffffffffffffff19169060200190929190505050610ce5565b60405180821515815260200191505060405180910390f35b61020b600480360360208110156101f557600080fd5b8101908080359060200190929190505050610d4c565b6040518080602001828103825283818151815260200191508051906020019080838360005b8381101561024b578082015181840152602081019050610230565b50505050905090810190601f1680156102785780820380516001836020036101000a031916815260200191505b509250505060405180910390f35b6104a7600480360360a081101561029c57600080fd5b81019080803573ffffffffffffffffffffffffffffffffffffffff169060200190929190803573ffffffffffffffffffffffffffffffffffffffff169060200190929190803590602001906401000000008111156102f957600080fd5b82018360208201111561030b57600080fd5b8035906020019184602083028401116401000000008311171561032d57600080fd5b919080806020026020016040519081016040528093929190818152602001838360200280828437600081840152601f19601f8201169050808301925050505050505091929192908035906020019064010000000081111561038d57600080fd5b82018360208201111561039f57600080fd5b803590602001918460208302840111640100000000831117156103c157600080fd5b919080806020026020016040519081016040528093929190818152602001838360200280828437600081840152601f19601f8201169050808301925050505050505091929192908035906020019064010000000081111561042157600080fd5b82018360208201111561043357600080fd5b8035906020019184600183028401116401000000008311171561045557600080fd5b91908080601f016020809104026020016040519081016040528093929190818152602001838380828437600081840152601f19601f820116905080830192505050505050509192919290505050610df0565b005b6104b161127b565b6040518080602001828103825283818151815260200191508051906020019080838360005b838110156104f15780820151818401526020810190506104d6565b50505050905090810190601f16801561051e5780820380516001836020036101000a031916815260200191505b509250505060405180910390f35b6106766004803603604081101561054257600080fd5b810190808035906020019064010000000081111561055f57600080fd5b82018360208201111561057157600080fd5b8035906020019184602083028401116401000000008311171561059357600080fd5b919080806020026020016040519081016040528093929190818152602001838360200280828437600081840152601f19601f820116905080830192505050505050509192919290803590602001906401000000008111156105f357600080fd5b82018360208201111561060557600080fd5b8035906020019184602083028401116401000000008311171561062757600080fd5b919080806020026020016040519081016040528093929190818152602001838360200280828437600081840152601f19601f8201169050808301925050505050505091929192905050506112b8565b6040518080602001828103825283818151815260200191508051906020019060200280838360005b838110156106b957808201518184015260208101905061069e565b505050509050019250505060405180910390f35b6106f9600480360360208110156106e357600080fd5b81019080803590602001909291905050506113ca565b6040518080602001828103825283818151815260200191508051906020019080838360005b8381101561073957808201518184015260208101905061071e565b50505050905090810190601f1680156107665780820380516001836020036101000a031916815260200191505b509250505060405180910390f35b6107b66004803603602081101561078a57600080fd5b81019080803573ffffffffffffffffffffffffffffffffffffffff169060200190929190505050611483565b60405180821515815260200191505060405180910390f35b6107d66114dd565b6040518082815260200191505060405180910390f35b6107f46114ea565b005b6107fe61165a565b604051808273ffffffffffffffffffffffffffffffffffffffff16815260200191505060405180910390f35b610832611680565b604051808273ffffffffffffffffffffffffffffffffffffffff16815260200191505060405180910390f35b6108ac6004803603604081101561087457600080fd5b81019080803573ffffffffffffffffffffffffffffffffffffffff1690602001909291908035151590602001909291905050506116aa565b005b610967600480360360208110156108c457600080fd5b81019080803590602001906401000000008111156108e157600080fd5b8201836020820111156108f357600080fd5b8035906020019184600183028401116401000000008311171561091557600080fd5b91908080601f016020809104026020016040519081016040528093929190818152602001838380828437600081840152601f19601f820116905080830192505050505050509192919290505050611843565b005b610a226004803603602081101561097f57600080fd5b810190808035906020019064010000000081111561099c57600080fd5b8201836020820111156109ae57600080fd5b803590602001918460018302840111640100000000831117156109d057600080fd5b91908080601f016020809104026020016040519081016040528093929190818152602001838380828437600081840152601f19601f820116905080830192505050505050509192919290505050611acc565b6040518082815260200191505060405180910390f35b610a9a60048036036040811015610a4e57600080fd5b81019080803573ffffffffffffffffffffffffffffffffffffffff169060200190929190803573ffffffffffffffffffffffffffffffffffffffff169060200190929190505050611b3f565b60405180821515815260200191505060405180910390f35b610bbf600480360360a0811015610ac857600080fd5b81019080803573ffffffffffffffffffffffffffffffffffffffff169060200190929190803573ffffffffffffffffffffffffffffffffffffffff169060200190929190803590602001909291908035906020019092919080359060200190640100000000811115610b3957600080fd5b820183602082011115610b4b57600080fd5b80359060200191846001830284011164010000000083111715610b6d57600080fd5b91908080601f016020809104026020016040519081016040528093929190818152602001838380828437600081840152601f19601f820116905080830192505050505050509192919290505050611bd3565b005b610c0360048036036020811015610bd757600080fd5b81019080803573ffffffffffffffffffffffffffffffffffffffff169060200190929190505050611f48565b005b60008073ffffffffffffffffffffffffffffffffffffffff168373ffffffffffffffffffffffffffffffffffffffff161415610c8c576040517f08c379a000000000000000000000000000000000000000000000000000000000815260040180806020018281038252602b815260200180612db3602b913960400191505060405180910390fd5b6001600083815260200190815260200160002060008473ffffffffffffffffffffffffffffffffffffffff1673ffffffffffffffffffffffffffffffffffffffff16815260200190815260200160002054905092915050565b6000806000837bffffffffffffffffffffffffffffffffffffffffffffffffffffffff19167bffffffffffffffffffffffffffffffffffffffffffffffffffffffff1916815260200190815260200160002060009054906101000a900460ff169050919050565b606060038054600181600116156101000203166002900480601f016020809104026020016040519081016040528092919081815260200182805460018160011615610100020316600290048015610de45780601f10610db957610100808354040283529160200191610de4565b820191906000526020600020905b815481529060010190602001808311610dc757829003601f168201915b50505050509050919050565b8151835114610e4a576040517f08c379a0000000000000000000000000000000000000000000000000000000008152600401808060200182810382526028815260200180612f266028913960400191505060405180910390fd5b600073ffffffffffffffffffffffffffffffffffffffff168473ffffffffffffffffffffffffffffffffffffffff161415610ed0576040517f08c379a0000000000000000000000000000000000000000000000000000000008152600401808060200182810382526025815260200180612e536025913960400191505060405180910390fd5b610ed861213d565b73ffffffffffffffffffffffffffffffffffffffff168573ffffffffffffffffffffffffffffffffffffffff161480610f1e5750610f1d85610f1861213d565b611b3f565b5b610f73576040517f08c379a0000000000000000000000000000000000000000000000000000000008152600401808060200182810382526032815260200180612e786032913960400191505060405180910390fd5b6000610f7d61213d565b9050610f8d818787878787612179565b60005b845181101561115e576000858281518110610fa757fe5b602002602001015190506000858381518110610fbf57fe5b60200260200101519050611046816040518060600160405280602a8152602001612eaa602a91396001600086815260200190815260200160002060008d73ffffffffffffffffffffffffffffffffffffffff1673ffffffffffffffffffffffffffffffffffffffff168152602001908152602001600020546121819092919063ffffffff16565b6001600084815260200190815260200160002060008b73ffffffffffffffffffffffffffffffffffffffff1673ffffffffffffffffffffffffffffffffffffffff168152602001908152602001600020819055506110fd816001600085815260200190815260200160002060008b73ffffffffffffffffffffffffffffffffffffffff1673ffffffffffffffffffffffffffffffffffffffff1681526020019081526020016000205461223b90919063ffffffff16565b6001600084815260200190815260200160002060008a73ffffffffffffffffffffffffffffffffffffffff1673ffffffffffffffffffffffffffffffffffffffff168152602001908152602001600020819055505050806001019050610f90565b508473ffffffffffffffffffffffffffffffffffffffff168673ffffffffffffffffffffffffffffffffffffffff168273ffffffffffffffffffffffffffffffffffffffff167f4a39dc06d4c0dbc64b70af90fd698a233a518aa5d07e595d983b8c0526c8f7fb8787604051808060200180602001838103835285818151815260200191508051906020019060200280838360005b8381101561120e5780820151818401526020810190506111f3565b50505050905001838103825284818151815260200191508051906020019060200280838360005b83811015611250578082015181840152602081019050611235565b5050505090500194505050505060405180910390a46112738187878787876122c3565b505050505050565b60606040518060400160405280600281526020017f5634000000000000000000000000000000000000000000000000000000000000815250905090565b60608151835114611314576040517f08c379a0000000000000000000000000000000000000000000000000000000008152600401808060200182810382526029815260200180612efd6029913960400191505060405180910390fd5b6060835167ffffffffffffffff8111801561132e57600080fd5b5060405190808252806020026020018201604052801561135d5781602001602082028036833780820191505090505b50905060005b84518110156113bf5761139c85828151811061137b57fe5b602002602001015185838151811061138f57fe5b6020026020010151610c05565b8282815181106113a857fe5b602002602001018181525050806001019050611363565b508091505092915050565b600681815481106113d757fe5b906000526020600020016000915090508054600181600116156101000203166002900480601f01602080910402602001604051908101604052809291908181526020018280546001816001161561010002031660029004801561147b5780601f106114505761010080835404028352916020019161147b565b820191906000526020600020905b81548152906001019060200180831161145e57829003601f168201915b505050505081565b6000600560009054906101000a900473ffffffffffffffffffffffffffffffffffffffff1673ffffffffffffffffffffffffffffffffffffffff168273ffffffffffffffffffffffffffffffffffffffff16149050919050565b6000600680549050905090565b6114f261213d565b73ffffffffffffffffffffffffffffffffffffffff16611510611680565b73ffffffffffffffffffffffffffffffffffffffff1614611599576040517f08c379a00000000000000000000000000000000000000000000000000000000081526004018080602001828103825260208152602001807f4f776e61626c653a2063616c6c6572206973206e6f7420746865206f776e657281525060200191505060405180910390fd5b600073ffffffffffffffffffffffffffffffffffffffff16600460009054906101000a900473ffffffffffffffffffffffffffffffffffffffff1673ffffffffffffffffffffffffffffffffffffffff167f8be0079c531659141344cd1fd0a4f28419497f9722a3daafe3b4186f6b6457e060405160405180910390a36000600460006101000a81548173ffffffffffffffffffffffffffffffffffffffff021916908373ffffffffffffffffffffffffffffffffffffffff160217905550565b600560009054906101000a900473ffffffffffffffffffffffffffffffffffffffff1681565b6000600460009054906101000a900473ffffffffffffffffffffffffffffffffffffffff16905090565b8173ffffffffffffffffffffffffffffffffffffffff166116c961213d565b73ffffffffffffffffffffffffffffffffffffffff161415611736576040517f08c379a0000000000000000000000000000000000000000000000000000000008152600401808060200182810382526029815260200180612ed46029913960400191505060405180910390fd5b806002600061174361213d565b73ffffffffffffffffffffffffffffffffffffffff1673ffffffffffffffffffffffffffffffffffffffff16815260200190815260200160002060008473ffffffffffffffffffffffffffffffffffffffff1673ffffffffffffffffffffffffffffffffffffffff16815260200190815260200160002060006101000a81548160ff0219169083151502179055508173ffffffffffffffffffffffffffffffffffffffff166117f061213d565b73ffffffffffffffffffffffffffffffffffffffff167f17307eab39ab6107e8899845ad3d59bd9653f200f220920489ca2b5937696c318360405180821515815260200191505060405180910390a35050565b6007816040518082805190602001908083835b602083106118795780518252602082019150602081019050602083039250611856565b6001836020036101000a038019825116818451168082178552505050505050905001915050908152602001604051809103902060009054906101000a900460ff1615611910576040517f08c379a0000000000000000000000000000000000000000000000000000000008152600401808060200182810382526026815260200180612e2d6026913960400191505060405180910390fd5b60068190806001815401808255809150506001900390600052602060002001600090919091909150908051906020019061194b929190612be5565b506000600160068054905003905061197c61196461213d565b82600160405180602001604052806000815250612652565b60016007836040518082805190602001908083835b602083106119b45780518252602082019150602081019050602083039250611991565b6001836020036101000a038019825116818451168082178552505050505050905001915050908152602001604051809103902060006101000a81548160ff021916908315150217905550806008836040518082805190602001908083835b60208310611a355780518252602082019150602081019050602083039250611a12565b6001836020036101000a0380198251168184511680821785525050505050509050019150509081526020016040518091039020819055507f4cc0a9c4a99ddc700de1af2c9f916a7cbfdb71f14801ccff94061ad1ef8a8040611a9561213d565b82604051808373ffffffffffffffffffffffffffffffffffffffff1681526020018281526020019250505060405180910390a15050565b60006008826040518082805190602001908083835b60208310611b045780518252602082019150602081019050602083039250611ae1565b6001836020036101000a0380198251168184511680821785525050505050509050019150509081526020016040518091039020549050919050565b6000600260008473ffffffffffffffffffffffffffffffffffffffff1673ffffffffffffffffffffffffffffffffffffffff16815260200190815260200160002060008373ffffffffffffffffffffffffffffffffffffffff1673ffffffffffffffffffffffffffffffffffffffff16815260200190815260200160002060009054906101000a900460ff16905092915050565b600073ffffffffffffffffffffffffffffffffffffffff168473ffffffffffffffffffffffffffffffffffffffff161415611c59576040517f08c379a0000000000000000000000000000000000000000000000000000000008152600401808060200182810382526025815260200180612e536025913960400191505060405180910390fd5b611c6161213d565b73ffffffffffffffffffffffffffffffffffffffff168573ffffffffffffffffffffffffffffffffffffffff161480611ca75750611ca685611ca161213d565b611b3f565b5b611cfc576040517f08c379a0000000000000000000000000000000000000000000000000000000008152600401808060200182810382526029815260200180612e046029913960400191505060405180910390fd5b6000611d0661213d565b9050611d26818787611d1788612855565b611d2088612855565b87612179565b611da3836040518060600160405280602a8152602001612eaa602a91396001600088815260200190815260200160002060008a73ffffffffffffffffffffffffffffffffffffffff1673ffffffffffffffffffffffffffffffffffffffff168152602001908152602001600020546121819092919063ffffffff16565b6001600086815260200190815260200160002060008873ffffffffffffffffffffffffffffffffffffffff1673ffffffffffffffffffffffffffffffffffffffff16815260200190815260200160002081905550611e5a836001600087815260200190815260200160002060008873ffffffffffffffffffffffffffffffffffffffff1673ffffffffffffffffffffffffffffffffffffffff1681526020019081526020016000205461223b90919063ffffffff16565b6001600086815260200190815260200160002060008773ffffffffffffffffffffffffffffffffffffffff1673ffffffffffffffffffffffffffffffffffffffff168152602001908152602001600020819055508473ffffffffffffffffffffffffffffffffffffffff168673ffffffffffffffffffffffffffffffffffffffff168273ffffffffffffffffffffffffffffffffffffffff167fc3d58168c5ae7397731d063d5bbf3d657854427343f4c083240f7aacaa2d0f628787604051808381526020018281526020019250505060405180910390a4611f408187878787876128c5565b505050505050565b611f5061213d565b73ffffffffffffffffffffffffffffffffffffffff16611f6e611680565b73ffffffffffffffffffffffffffffffffffffffff1614611ff7576040517f08c379a00000000000000000000000000000000000000000000000000000000081526004018080602001828103825260208152602001807f4f776e61626c653a2063616c6c6572206973206e6f7420746865206f776e657281525060200191505060405180910390fd5b600073ffffffffffffffffffffffffffffffffffffffff168173ffffffffffffffffffffffffffffffffffffffff16141561207d576040517f08c379a0000000000000000000000000000000000000000000000000000000008152600401808060200182810382526026815260200180612dde6026913960400191505060405180910390fd5b8073ffffffffffffffffffffffffffffffffffffffff16600460009054906101000a900473ffffffffffffffffffffffffffffffffffffffff1673ffffffffffffffffffffffffffffffffffffffff167f8be0079c531659141344cd1fd0a4f28419497f9722a3daafe3b4186f6b6457e060405160405180910390a380600460006101000a81548173ffffffffffffffffffffffffffffffffffffffff021916908373ffffffffffffffffffffffffffffffffffffffff16021790555050565b60006018600036905010158015612159575061215833611483565b5b1561216d57601436033560601c9050612175565b339050612176565b5b90565b505050505050565b600083831115829061222e576040517f08c379a00000000000000000000000000000000000000000000000000000000081526004018080602001828103825283818151815260200191508051906020019080838360005b838110156121f35780820151818401526020810190506121d8565b50505050905090810190601f1680156122205780820380516001836020036101000a031916815260200191505b509250505060405180910390fd5b5082840390509392505050565b6000808284019050838110156122b9576040517f08c379a000000000000000000000000000000000000000000000000000000000815260040180806020018281038252601b8152602001807f536166654d6174683a206164646974696f6e206f766572666c6f77000000000081525060200191505060405180910390fd5b8091505092915050565b6122e28473ffffffffffffffffffffffffffffffffffffffff16612bd2565b1561264a578373ffffffffffffffffffffffffffffffffffffffff1663bc197c8187878686866040518663ffffffff1660e01b8152600401808673ffffffffffffffffffffffffffffffffffffffff1681526020018573ffffffffffffffffffffffffffffffffffffffff168152602001806020018060200180602001848103845287818151815260200191508051906020019060200280838360005b8381101561239a57808201518184015260208101905061237f565b50505050905001848103835286818151815260200191508051906020019060200280838360005b838110156123dc5780820151818401526020810190506123c1565b50505050905001848103825285818151815260200191508051906020019080838360005b8381101561241b578082015181840152602081019050612400565b50505050905090810190601f1680156124485780820380516001836020036101000a031916815260200191505b5098505050505050505050602060405180830381600087803b15801561246d57600080fd5b505af19250505080156124a157506040513d602081101561248d57600080fd5b810190808051906020019092919050505060015b6125ab576124ad612ca0565b806124b8575061255a565b806040517f08c379a00000000000000000000000000000000000000000000000000000000081526004018080602001828103825283818151815260200191508051906020019080838360005b8381101561251f578082015181840152602081019050612504565b50505050905090810190601f16801561254c5780820380516001836020036101000a031916815260200191505b509250505060405180910390fd5b6040517f08c379a0000000000000000000000000000000000000000000000000000000008152600401808060200182810382526034815260200180612d576034913960400191505060405180910390fd5b63bc197c8160e01b7bffffffffffffffffffffffffffffffffffffffffffffffffffffffff1916817bffffffffffffffffffffffffffffffffffffffffffffffffffffffff191614612648576040517f08c379a0000000000000000000000000000000000000000000000000000000008152600401808060200182810382526028815260200180612d8b6028913960400191505060405180910390fd5b505b505050505050565b600073ffffffffffffffffffffffffffffffffffffffff168473ffffffffffffffffffffffffffffffffffffffff1614156126d8576040517f08c379a0000000000000000000000000000000000000000000000000000000008152600401808060200182810382526021815260200180612f4e6021913960400191505060405180910390fd5b60006126e261213d565b9050612703816000876126f488612855565b6126fd88612855565b87612179565b612766836001600087815260200190815260200160002060008873ffffffffffffffffffffffffffffffffffffffff1673ffffffffffffffffffffffffffffffffffffffff1681526020019081526020016000205461223b90919063ffffffff16565b6001600086815260200190815260200160002060008773ffffffffffffffffffffffffffffffffffffffff1673ffffffffffffffffffffffffffffffffffffffff168152602001908152602001600020819055508473ffffffffffffffffffffffffffffffffffffffff16600073ffffffffffffffffffffffffffffffffffffffff168273ffffffffffffffffffffffffffffffffffffffff167fc3d58168c5ae7397731d063d5bbf3d657854427343f4c083240f7aacaa2d0f628787604051808381526020018281526020019250505060405180910390a461284e816000878787876128c5565b5050505050565b606080600167ffffffffffffffff8111801561287057600080fd5b5060405190808252806020026020018201604052801561289f5781602001602082028036833780820191505090505b50905082816000815181106128b057fe5b60200260200101818152505080915050919050565b6128e48473ffffffffffffffffffffffffffffffffffffffff16612bd2565b15612bca578373ffffffffffffffffffffffffffffffffffffffff1663f23a6e6187878686866040518663ffffffff1660e01b8152600401808673ffffffffffffffffffffffffffffffffffffffff1681526020018573ffffffffffffffffffffffffffffffffffffffff16815260200184815260200183815260200180602001828103825283818151815260200191508051906020019080838360005b8381101561299d578082015181840152602081019050612982565b50505050905090810190601f1680156129ca5780820380516001836020036101000a031916815260200191505b509650505050505050602060405180830381600087803b1580156129ed57600080fd5b505af1925050508015612a2157506040513d6020811015612a0d57600080fd5b810190808051906020019092919050505060015b612b2b57612a2d612ca0565b80612a385750612ada565b806040517f08c379a00000000000000000000000000000000000000000000000000000000081526004018080602001828103825283818151815260200191508051906020019080838360005b83811015612a9f578082015181840152602081019050612a84565b50505050905090810190601f168015612acc5780820380516001836020036101000a031916815260200191505b509250505060405180910390fd5b6040517f08c379a0000000000000000000000000000000000000000000000000000000008152600401808060200182810382526034815260200180612d576034913960400191505060405180910390fd5b63f23a6e6160e01b7bffffffffffffffffffffffffffffffffffffffffffffffffffffffff1916817bffffffffffffffffffffffffffffffffffffffffffffffffffffffff191614612bc8576040517f08c379a0000000000000000000000000000000000000000000000000000000008152600401808060200182810382526028815260200180612d8b6028913960400191505060405180910390fd5b505b505050505050565b600080823b905060008111915050919050565b828054600181600116156101000203166002900490600052602060002090601f016020900481019282601f10612c2657805160ff1916838001178555612c54565b82800160010185558215612c54579182015b82811115612c53578251825591602001919060010190612c38565b5b509050612c619190612c65565b5090565b5b80821115612c7e576000816000905550600101612c66565b5090565b6000601f19601f8301169050919050565b60008160e01c9050919050565b600060443d1015612cb057612d53565b60046000803e612cc1600051612c93565b6308c379a08114612cd25750612d53565b60405160043d036004823e80513d602482011167ffffffffffffffff82111715612cfe57505050612d53565b808201805167ffffffffffffffff811115612d1d575050505050612d53565b8060208301013d8501811115612d3857505050505050612d53565b612d4182612c82565b60208401016040528296505050505050505b9056fe455243313135353a207472616e7366657220746f206e6f6e2045524331313535526563656976657220696d706c656d656e746572455243313135353a204552433131353552656365697665722072656a656374656420746f6b656e73455243313135353a2062616c616e636520717565727920666f7220746865207a65726f20616464726573734f776e61626c653a206e6577206f776e657220697320746865207a65726f2061646472657373455243313135353a2063616c6c6572206973206e6f74206f776e6572206e6f7220617070726f766564546f6b656e20776974682074686973206861736820697320616c7265616479206d696e746564455243313135353a207472616e7366657220746f20746865207a65726f2061646472657373455243313135353a207472616e736665722063616c6c6572206973206e6f74206f776e6572206e6f7220617070726f766564455243313135353a20696e73756666696369656e742062616c616e636520666f72207472616e73666572455243313135353a2073657474696e6720617070726f76616c2073746174757320666f722073656c66455243313135353a206163636f756e747320616e6420696473206c656e677468206d69736d61746368455243313135353a2069647320616e6420616d6f756e7473206c656e677468206d69736d61746368455243313135353a206d696e7420746f20746865207a65726f2061646472657373a2646970667358221220ddbd34e78509ec3f9dce5808d44ac67a599fb94c2e7ee9b299230aede67eeb6c64736f6c634300060c003368747470733a2f2f6578616d706c6575726c2f746f6b656e6d657461646174612f7b69647d2e6a736f6e",
  "immutableReferences": {},
  "source": "// SPDX-License-Identifier: MIT\npragma solidity ^0.6.0;\n\nimport \"@openzeppelin/contracts/token/ERC1155/ERC1155.sol\";\nimport \"@openzeppelin/contracts/access/Ownable.sol\";\nimport \"@opengsn/gsn/contracts/BaseRelayRecipient.sol\";\n\n/**\n * @title Biconomy_nft_poc\n * @notice An ERC1155 compliant NFT token\n * @author matt@mattprimeonline.com\n */\ncontract Biconomy_nft_poc is ERC1155, Ownable, BaseRelayRecipient {\n\n    // Hashes of NFT pictures on IPFS\n    string[] public hashes;\n\n    // Mapping for enforcing unique hashes\n    mapping(string => bool) _hashExists;\n\n    // Mapping from ipfs picture hash to NFT tokenID\n    mapping (string => uint256) private _hashToken;\n\n    event NFTMinted(address creator, uint256 tokenId);\n\n    constructor() public ERC1155(\"https://exampleurl/tokenmetadata/{id}.json\") {\n      trustedForwarder = 0x2B99251eC9650e507936fa9530D11dE4d6C9C05c;\n    }\n\n    /**\n     * @notice Mints a new NFT\n     * @param _hash IPFS picture hash of the NFT\n     */\n    function mint(string memory _hash) public {\n        require(!_hashExists[_hash], \"Token with this hash is already minted\");\n\n        hashes.push(_hash);\n        uint256 _id = hashes.length - 1;\n        _mint(_msgSender(), _id, 1, \"\");\n\n        _hashExists[_hash] = true;\n        _hashToken[_hash] = _id;\n\n        emit NFTMinted(_msgSender(), _id);\n    }\n\n    /**\n     * @notice Returns the TokenID of nft\n     * @return tokenID of the nft\n     */\n    function getTokenID(string memory _hash) public view returns (uint256 tokenID) {\n        return _hashToken[_hash];\n    }\n\n    /**\n     * @notice Returns the number of minted nfts\n     * @return count the number of nfts\n     */\n    function getNftCount() public view returns (uint256 count) {\n        return hashes.length;\n    }\n\n    function versionRecipient() external override view returns (string memory) {\n      return \"V4\";\n    }\n\n    /**\n     * return the sender of this call.\n     * if the call came through our trusted forwarder, return the original sender.\n     * otherwise, return `msg.sender`.\n     * should be used in the contract anywhere instead of msg.sender\n     */\n    function _msgSender() internal override(BaseRelayRecipient,Context) view returns (address payable ret) {\n        if (msg.data.length >= 24 && isTrustedForwarder(msg.sender)) {\n            // At this point we know that the sender is a trusted forwarder,\n            // so we trust that the last bytes of msg.data are the verified sender address.\n            // extract sender address from the end of msg.data\n            assembly {\n                ret := shr(96,calldataload(sub(calldatasize(),20)))\n            }\n        } else {\n            return msg.sender;\n        }\n    }\n\n    /**\n     * return the msg.data of this call.\n     * if the call came through our trusted forwarder, then the real sender was appended as the last 20 bytes\n     * of the msg.data - so this method will strip those 20 bytes off.\n     * otherwise, return `msg.data`\n     * should be used in the contract instead of msg.data, where the difference matters (e.g. when explicitly\n     * signing or hashing the\n     */\n      function _msgData() internal override(BaseRelayRecipient,Context) view returns (bytes memory ret) {\n          if (msg.data.length >= 24 && isTrustedForwarder(msg.sender)) {\n              // At this point we know that the sender is a trusted forwarder,\n              // we copy the msg.data , except the last 20 bytes (and update the total length)\n              assembly {\n                  let ptr := mload(0x40)\n                  // copy only size-20 bytes\n                  let size := sub(calldatasize(),20)\n                  // structure RLP data as <offset> <length> <bytes>\n                  mstore(ptr, 0x20)\n                  mstore(add(ptr,32), size)\n                  calldatacopy(add(ptr,64), 0, size)\n                  return(ptr, add(size,64))\n              }\n          } else {\n              return msg.data;\n          }\n      }\n}\n",
  "sourcePath": "/home/developer/biconomy_nft_poc/contracts/Biconomy_nft_poc.sol",
  "compiler": {
    "name": "solc",
    "version": "0.6.12+commit.27d51765.Emscripten.clang"
  },
  "schemaVersion": "3.3.2",
  "updatedAt": "2021-02-10T22:08:22.441Z",
  "networkType": "ethereum",
  "devdoc": {
    "author": "matt@mattprimeonline.com",
    "kind": "dev",
    "methods": {
      "balanceOf(address,uint256)": {
        "details": "See {IERC1155-balanceOf}. Requirements: - `account` cannot be the zero address."
      },
      "balanceOfBatch(address[],uint256[])": {
        "details": "See {IERC1155-balanceOfBatch}. Requirements: - `accounts` and `ids` must have the same length."
      },
      "getNftCount()": {
        "returns": {
          "count": "the number of nfts"
        }
      },
      "getTokenID(string)": {
        "returns": {
          "tokenID": "of the nft"
        }
      },
      "isApprovedForAll(address,address)": {
        "details": "See {IERC1155-isApprovedForAll}."
      },
      "mint(string)": {
        "params": {
          "_hash": "IPFS picture hash of the NFT"
        }
      },
      "owner()": {
        "details": "Returns the address of the current owner."
      },
      "renounceOwnership()": {
        "details": "Leaves the contract without owner. It will not be possible to call `onlyOwner` functions anymore. Can only be called by the current owner. NOTE: Renouncing ownership will leave the contract without an owner, thereby removing any functionality that is only available to the owner."
      },
      "safeBatchTransferFrom(address,address,uint256[],uint256[],bytes)": {
        "details": "See {IERC1155-safeBatchTransferFrom}."
      },
      "safeTransferFrom(address,address,uint256,uint256,bytes)": {
        "details": "See {IERC1155-safeTransferFrom}."
      },
      "setApprovalForAll(address,bool)": {
        "details": "See {IERC1155-setApprovalForAll}."
      },
      "supportsInterface(bytes4)": {
        "details": "See {IERC165-supportsInterface}. Time complexity O(1), guaranteed to always use less than 30 000 gas."
      },
      "transferOwnership(address)": {
        "details": "Transfers ownership of the contract to a new account (`newOwner`). Can only be called by the current owner."
      },
      "uri(uint256)": {
        "details": "See {IERC1155MetadataURI-uri}. This implementation returns the same URI for *all* token types. It relies on the token type ID substitution mechanism https://eips.ethereum.org/EIPS/eip-1155#metadata[defined in the EIP]. Clients calling this function must replace the `\\{id\\}` substring with the actual token type ID."
      }
    },
    "title": "Biconomy_nft_poc",
    "version": 1
  },
  "userdoc": {
    "kind": "user",
    "methods": {
      "getNftCount()": {
        "notice": "Returns the number of minted nfts"
      },
      "getTokenID(string)": {
        "notice": "Returns the TokenID of nft"
      },
      "isTrustedForwarder(address)": {
        "notice": "return if the forwarder is trusted to forward relayed transactions to us. the forwarder is required to verify the sender's signature, and verify the call is not a replay."
      },
      "mint(string)": {
        "notice": "Mints a new NFT"
      }
    },
    "notice": "An ERC1155 compliant NFT token",
    "version": 1
  }
}